{
  "address": "0xEd0c9B1CDaBDB585Dca32191a09a456D935E6Cfe",
  "abi": [
    {
      "name": "NewAddressIdentifier",
      "inputs": [
        {
          "name": "id",
          "type": "uint256",
          "indexed": true
        },
        {
          "name": "addr",
          "type": "address",
          "indexed": false
        },
        {
          "name": "description",
          "type": "string",
          "indexed": false
        }
      ],
      "anonymous": false,
      "type": "event"
    },
    {
      "name": "AddressModified",
      "inputs": [
        {
          "name": "id",
          "type": "uint256",
          "indexed": true
        },
        {
          "name": "new_address",
          "type": "address",
          "indexed": false
        },
        {
          "name": "version",
          "type": "uint256",
          "indexed": false
        }
      ],
      "anonymous": false,
      "type": "event"
    },
    {
      "name": "CommitNewAdmin",
      "inputs": [
        {
          "name": "deadline",
          "type": "uint256",
          "indexed": true
        },
        {
          "name": "admin",
          "type": "address",
          "indexed": true
        }
      ],
      "anonymous": false,
      "type": "event"
    },
    {
      "name": "NewAdmin",
      "inputs": [
        {
          "name": "admin",
          "type": "address",
          "indexed": true
        }
      ],
      "anonymous": false,
      "type": "event"
    },
    {
      "stateMutability": "nonpayable",
      "type": "constructor",
      "inputs": [
        {
          "name": "_admin",
          "type": "address"
        }
      ],
      "outputs": []
    },
    {
      "stateMutability": "view",
      "type": "function",
      "name": "get_registry",
      "inputs": [],
      "outputs": [
        {
          "name": "",
          "type": "address"
        }
      ],
      "gas": 1088
    },
    {
      "stateMutability": "view",
      "type": "function",
      "name": "max_id",
      "inputs": [],
      "outputs": [
        {
          "name": "",
          "type": "uint256"
        }
      ],
      "gas": 1285
    },
    {
      "stateMutability": "view",
      "type": "function",
      "name": "get_address",
      "inputs": [
        {
          "name": "_id",
          "type": "uint256"
        }
      ],
      "outputs": [
        {
          "name": "",
          "type": "address"
        }
      ],
      "gas": 1335
    },
    {
      "stateMutability": "nonpayable",
      "type": "function",
      "name": "add_new_id",
      "inputs": [
        {
          "name": "_address",
          "type": "address"
        },
        {
          "name": "_description",
          "type": "string"
        }
      ],
      "outputs": [
        {
          "name": "",
          "type": "uint256"
        }
      ],
      "gas": 291302
    },
    {
      "stateMutability": "nonpayable",
      "type": "function",
      "name": "set_address",
      "inputs": [
        {
          "name": "_id",
          "type": "uint256"
        },
        {
          "name": "_address",
          "type": "address"
        }
      ],
      "outputs": [
        {
          "name": "",
          "type": "bool"
        }
      ],
      "gas": 182457
    },
    {
      "stateMutability": "nonpayable",
      "type": "function",
      "name": "unset_address",
      "inputs": [
        {
          "name": "_id",
          "type": "uint256"
        }
      ],
      "outputs": [
        {
          "name": "",
          "type": "bool"
        }
      ],
      "gas": 101375
    },
    {
      "stateMutability": "nonpayable",
      "type": "function",
      "name": "commit_transfer_ownership",
      "inputs": [
        {
          "name": "_new_admin",
          "type": "address"
        }
      ],
      "outputs": [
        {
          "name": "",
          "type": "bool"
        }
      ],
      "gas": 74075
    },
    {
      "stateMutability": "nonpayable",
      "type": "function",
      "name": "apply_transfer_ownership",
      "inputs": [],
      "outputs": [
        {
          "name": "",
          "type": "bool"
        }
      ],
      "gas": 60152
    },
    {
      "stateMutability": "nonpayable",
      "type": "function",
      "name": "revert_transfer_ownership",
      "inputs": [],
      "outputs": [
        {
          "name": "",
          "type": "bool"
        }
      ],
      "gas": 21427
    },
    {
      "stateMutability": "view",
      "type": "function",
      "name": "admin",
      "inputs": [],
      "outputs": [
        {
          "name": "",
          "type": "address"
        }
      ],
      "gas": 1358
    },
    {
      "stateMutability": "view",
      "type": "function",
      "name": "transfer_ownership_deadline",
      "inputs": [],
      "outputs": [
        {
          "name": "",
          "type": "uint256"
        }
      ],
      "gas": 1388
    },
    {
      "stateMutability": "view",
      "type": "function",
      "name": "future_admin",
      "inputs": [],
      "outputs": [
        {
          "name": "",
          "type": "address"
        }
      ],
      "gas": 1418
    },
    {
      "stateMutability": "view",
      "type": "function",
      "name": "get_id_info",
      "inputs": [
        {
          "name": "arg0",
          "type": "uint256"
        }
      ],
      "outputs": [
        {
          "name": "addr",
          "type": "address"
        },
        {
          "name": "is_active",
          "type": "bool"
        },
        {
          "name": "version",
          "type": "uint256"
        },
        {
          "name": "last_modified",
          "type": "uint256"
        },
        {
          "name": "description",
          "type": "string"
        }
      ],
      "gas": 12195
    }
  ],
  "transactionHash": "0xdb3679b30b946ba6563e53907991a1060b93f6b0584d3d2faeb55a438094a563",
  "args": [
    "0xCD943EE26221AC3e6e7f3e38598F2b08BAEA87DD"
  ],
  "numDeployments": 1,
  "bytecode": "0x602061086461014039602061086460c03960c05160a01c1561002057600080fd5b610140516001556001600455600d610160527f4d61696e20526567697374727900000000000000000000000000000000000000610180526101608060046005600060e05260c052604060c02060c052602060c0200160c052602060c020602082510161012060006002818352015b826101205160200211156100a1576100c3565b61012051602002850151610120518501555b815160010180835281141561008e575b50505050505061084c56600436101561000d57610778565b600035601c52600051341561002157600080fd5b63a262904b8114156100395760005460005260206000f35b630c6d784f8114156100675760045460018082101561005757600080fd5b8082039050905060005260206000f35b63493f4f7481141561009557600560043560e05260c052604060c02060c052602060c0205460005260206000f35b63168f95798114156102665760043560a01c156100b157600080fd5b60606024356004016101403760406024356004013511156100d157600080fd5b60015433146100df57600080fd5b60006004353b116100ef57600080fd5b6004546101c05260056101c05160e05260c052604060c02060c052602060c02060043581556001600182015560016002820155426003820155610140806004830160c052602060c020602082510161012060006003818352015b8261012051602002111561015c5761017e565b61012051602002850151610120518501555b8151600101808352811415610149575b505050505050506101c051600181818301101561019a57600080fd5b808201905090506004556004356102205260406101e0526101e051610240526101408051602001806101e051610220018284600060045af16101db57600080fd5b50506101e05161022001518060206101e051610220010101818260206001820306601f820103905003368237505060206101e051610220015160206001820306601f82010390506101e05101016101e0526101c0517f5b0f9b31dc08c19adcc0181c1b97ad54a84487faf0a4fdcb88c8681724298af96101e051610220a26101c05160005260206000f35b636a84cad08114156103b35760243560a01c1561028257600080fd5b600154331461029057600080fd5b60006024353b116102a057600080fd5b600435600454116102b057600080fd5b6002600560043560e05260c052604060c02060c052602060c020015460018181830110156102dd57600080fd5b8082019050905061014052602435600560043560e05260c052604060c02060c052602060c0205560016001600560043560e05260c052604060c02060c052602060c0200155610140516002600560043560e05260c052604060c02060c052602060c0200155426003600560043560e05260c052604060c02060c052602060c0200155600435151561036f576024356000555b6024356101605261014051610180526004357fe7a6334c4f573efdf292d404d59adacec345f4f7c76495a034008edda0acef476040610160a2600160005260206000f35b635eec0daa8114156104b25760015433146103cd57600080fd5b6001600560043560e05260c052604060c02060c052602060c02001546103f257600080fd5b60006001600560043560e05260c052604060c02060c052602060c02001556000600560043560e05260c052604060c02060c052602060c02055426003600560043560e05260c052604060c02060c052602060c020015560043515156104575760006000555b6000610140526002600560043560e05260c052604060c02060c052602060c0200154610160526004357fe7a6334c4f573efdf292d404d59adacec345f4f7c76495a034008edda0acef476040610140a2600160005260206000f35b636b441a4081141561054d5760043560a01c156104ce57600080fd5b60015433146104dc57600080fd5b600254156104e957600080fd5b426203f4808181830110156104fd57600080fd5b808201905090506101405261014051600255600435600355600435610140517f181aa3aa17d4cbf99265dd4443eba009433d3cde79d60164fde1d1a192beb93560006000a3600160005260206000f35b636a1c05ae8114156105cd57600154331461056757600080fd5b60006002541861057657600080fd5b60025442101561058557600080fd5b60035461014052610140516001556000600255610140517f71614071b88dee5e0b2ae578a9dd7b2ebbe9ae832ba419dc0242cd065a290b6c60006000a2600160005260206000f35b6386fbf1938114156105f75760015433146105e757600080fd5b6000600255600160005260206000f35b63f851a44081141561060f5760015460005260206000f35b63e0a0b5868114156106275760025460005260206000f35b6317f7182a81141561063f5760035460005260206000f35b6392668ecb81141561077657600560043560e05260c052604060c0206101408060a081808560c052602060c0205481525050602082019150818060018660c052602060c020015481525050602082019150818060028660c052602060c020015481525050602082019150818060038660c052602060c0200154815250506020820191508082528083018060048660c052602060c020018060c052602060c02082602082540161012060006003818352015b8261012051602002111561070357610725565b61012051850154610120516020028501525b81516001018083528114156106f0575b5050505050508051806020830101818260206001820306601f8201039050033682375050805160200160206001820306601f820103905090509050810190508090509050905060c05260c051610140f35b505b60006000fd5b6100ce61084c036100ce6000396100ce61084c036000f3"
}