{
  "address": "0xDd729DbE884984a07Ba6065B8d7663D55Af3EC6e",
  "abi": [
    {
      "name": "PoolAdded",
      "inputs": [
        {
          "name": "pool",
          "type": "address",
          "indexed": true
        }
      ],
      "anonymous": false,
      "type": "event"
    },
    {
      "name": "PoolRemoved",
      "inputs": [
        {
          "name": "pool",
          "type": "address",
          "indexed": true
        }
      ],
      "anonymous": false,
      "type": "event"
    },
    {
      "stateMutability": "nonpayable",
      "type": "constructor",
      "inputs": [
        {
          "name": "_address_provider",
          "type": "address"
        },
        {
          "name": "_gauge_controller",
          "type": "address"
        }
      ],
      "outputs": []
    },
    {
      "stateMutability": "view",
      "type": "function",
      "name": "find_pool_for_coins",
      "inputs": [
        {
          "name": "_from",
          "type": "address"
        },
        {
          "name": "_to",
          "type": "address"
        }
      ],
      "outputs": [
        {
          "name": "",
          "type": "address"
        }
      ]
    },
    {
      "stateMutability": "view",
      "type": "function",
      "name": "find_pool_for_coins",
      "inputs": [
        {
          "name": "_from",
          "type": "address"
        },
        {
          "name": "_to",
          "type": "address"
        },
        {
          "name": "i",
          "type": "uint256"
        }
      ],
      "outputs": [
        {
          "name": "",
          "type": "address"
        }
      ]
    },
    {
      "stateMutability": "view",
      "type": "function",
      "name": "get_n_coins",
      "inputs": [
        {
          "name": "_pool",
          "type": "address"
        }
      ],
      "outputs": [
        {
          "name": "",
          "type": "uint256[2]"
        }
      ],
      "gas": 1521
    },
    {
      "stateMutability": "view",
      "type": "function",
      "name": "get_coins",
      "inputs": [
        {
          "name": "_pool",
          "type": "address"
        }
      ],
      "outputs": [
        {
          "name": "",
          "type": "address[8]"
        }
      ],
      "gas": 12102
    },
    {
      "stateMutability": "view",
      "type": "function",
      "name": "get_underlying_coins",
      "inputs": [
        {
          "name": "_pool",
          "type": "address"
        }
      ],
      "outputs": [
        {
          "name": "",
          "type": "address[8]"
        }
      ],
      "gas": 12194
    },
    {
      "stateMutability": "view",
      "type": "function",
      "name": "get_decimals",
      "inputs": [
        {
          "name": "_pool",
          "type": "address"
        }
      ],
      "outputs": [
        {
          "name": "",
          "type": "uint256[8]"
        }
      ],
      "gas": 7874
    },
    {
      "stateMutability": "view",
      "type": "function",
      "name": "get_underlying_decimals",
      "inputs": [
        {
          "name": "_pool",
          "type": "address"
        }
      ],
      "outputs": [
        {
          "name": "",
          "type": "uint256[8]"
        }
      ],
      "gas": 7966
    },
    {
      "stateMutability": "view",
      "type": "function",
      "name": "get_gauges",
      "inputs": [
        {
          "name": "_pool",
          "type": "address"
        }
      ],
      "outputs": [
        {
          "name": "",
          "type": "address[10]"
        },
        {
          "name": "",
          "type": "int128[10]"
        }
      ],
      "gas": 20127
    },
    {
      "stateMutability": "view",
      "type": "function",
      "name": "get_balances",
      "inputs": [
        {
          "name": "_pool",
          "type": "address"
        }
      ],
      "outputs": [
        {
          "name": "",
          "type": "uint256[8]"
        }
      ],
      "gas": 15196
    },
    {
      "stateMutability": "view",
      "type": "function",
      "name": "get_virtual_price_from_lp_token",
      "inputs": [
        {
          "name": "_token",
          "type": "address"
        }
      ],
      "outputs": [
        {
          "name": "",
          "type": "uint256"
        }
      ],
      "gas": 1867
    },
    {
      "stateMutability": "view",
      "type": "function",
      "name": "get_A",
      "inputs": [
        {
          "name": "_pool",
          "type": "address"
        }
      ],
      "outputs": [
        {
          "name": "",
          "type": "uint256"
        }
      ],
      "gas": 985
    },
    {
      "stateMutability": "view",
      "type": "function",
      "name": "get_parameters",
      "inputs": [
        {
          "name": "_pool",
          "type": "address"
        }
      ],
      "outputs": [
        {
          "name": "A",
          "type": "uint256"
        },
        {
          "name": "futureA",
          "type": "uint256"
        },
        {
          "name": "fee",
          "type": "uint256"
        },
        {
          "name": "adminFee",
          "type": "uint256"
        },
        {
          "name": "futureFee",
          "type": "uint256"
        },
        {
          "name": "futureAdminFee",
          "type": "uint256"
        },
        {
          "name": "future_owner",
          "type": "address"
        },
        {
          "name": "initialA",
          "type": "uint256"
        },
        {
          "name": "initialATime",
          "type": "uint256"
        },
        {
          "name": "futureATime",
          "type": "uint256"
        }
      ],
      "gas": 6245
    },
    {
      "stateMutability": "view",
      "type": "function",
      "name": "get_fees",
      "inputs": [
        {
          "name": "_pool",
          "type": "address"
        }
      ],
      "outputs": [
        {
          "name": "",
          "type": "uint256[2]"
        }
      ],
      "gas": 1390
    },
    {
      "stateMutability": "view",
      "type": "function",
      "name": "get_admin_balances",
      "inputs": [
        {
          "name": "_pool",
          "type": "address"
        }
      ],
      "outputs": [
        {
          "name": "",
          "type": "uint256[8]"
        }
      ],
      "gas": 35037
    },
    {
      "stateMutability": "view",
      "type": "function",
      "name": "get_coin_indices",
      "inputs": [
        {
          "name": "_pool",
          "type": "address"
        },
        {
          "name": "_from",
          "type": "address"
        },
        {
          "name": "_to",
          "type": "address"
        }
      ],
      "outputs": [
        {
          "name": "",
          "type": "int128"
        },
        {
          "name": "",
          "type": "int128"
        },
        {
          "name": "",
          "type": "bool"
        }
      ],
      "gas": 14183
    },
    {
      "stateMutability": "view",
      "type": "function",
      "name": "is_meta",
      "inputs": [
        {
          "name": "_pool",
          "type": "address"
        }
      ],
      "outputs": [
        {
          "name": "",
          "type": "bool"
        }
      ],
      "gas": 1810
    },
    {
      "stateMutability": "view",
      "type": "function",
      "name": "get_pool_name",
      "inputs": [
        {
          "name": "_pool",
          "type": "address"
        }
      ],
      "outputs": [
        {
          "name": "",
          "type": "string"
        }
      ],
      "gas": 8233
    },
    {
      "stateMutability": "view",
      "type": "function",
      "name": "get_coin_swap_count",
      "inputs": [
        {
          "name": "_coin",
          "type": "address"
        }
      ],
      "outputs": [
        {
          "name": "",
          "type": "uint256"
        }
      ],
      "gas": 1861
    },
    {
      "stateMutability": "view",
      "type": "function",
      "name": "get_coin_swap_complement",
      "inputs": [
        {
          "name": "_coin",
          "type": "address"
        },
        {
          "name": "_index",
          "type": "uint256"
        }
      ],
      "outputs": [
        {
          "name": "",
          "type": "address"
        }
      ],
      "gas": 2000
    },
    {
      "stateMutability": "view",
      "type": "function",
      "name": "get_pool_asset_type",
      "inputs": [
        {
          "name": "_pool",
          "type": "address"
        }
      ],
      "outputs": [
        {
          "name": "",
          "type": "uint256"
        }
      ],
      "gas": 1921
    },
    {
      "stateMutability": "nonpayable",
      "type": "function",
      "name": "add_pool",
      "inputs": [
        {
          "name": "_pool",
          "type": "address"
        },
        {
          "name": "_n_coins",
          "type": "uint256"
        },
        {
          "name": "_lp_token",
          "type": "address"
        },
        {
          "name": "_decimals",
          "type": "uint256"
        },
        {
          "name": "_has_initialA",
          "type": "bool"
        },
        {
          "name": "_name",
          "type": "string"
        }
      ],
      "outputs": [],
      "gas": 31214687
    },
    {
      "stateMutability": "nonpayable",
      "type": "function",
      "name": "remove_pool",
      "inputs": [
        {
          "name": "_pool",
          "type": "address"
        }
      ],
      "outputs": [],
      "gas": 779731353808
    },
    {
      "stateMutability": "nonpayable",
      "type": "function",
      "name": "set_liquidity_gauges",
      "inputs": [
        {
          "name": "_pool",
          "type": "address"
        },
        {
          "name": "_liquidity_gauges",
          "type": "address[10]"
        }
      ],
      "outputs": [],
      "gas": 400435
    },
    {
      "stateMutability": "nonpayable",
      "type": "function",
      "name": "set_pool_asset_type",
      "inputs": [
        {
          "name": "_pool",
          "type": "address"
        },
        {
          "name": "_asset_type",
          "type": "uint256"
        }
      ],
      "outputs": [],
      "gas": 72427
    },
    {
      "stateMutability": "nonpayable",
      "type": "function",
      "name": "batch_set_pool_asset_type",
      "inputs": [
        {
          "name": "_pools",
          "type": "address[32]"
        },
        {
          "name": "_asset_types",
          "type": "uint256[32]"
        }
      ],
      "outputs": [],
      "gas": 1173207
    },
    {
      "stateMutability": "view",
      "type": "function",
      "name": "address_provider",
      "inputs": [],
      "outputs": [
        {
          "name": "",
          "type": "address"
        }
      ],
      "gas": 1808
    },
    {
      "stateMutability": "view",
      "type": "function",
      "name": "gauge_controller",
      "inputs": [],
      "outputs": [
        {
          "name": "",
          "type": "address"
        }
      ],
      "gas": 1838
    },
    {
      "stateMutability": "view",
      "type": "function",
      "name": "pool_list",
      "inputs": [
        {
          "name": "arg0",
          "type": "uint256"
        }
      ],
      "outputs": [
        {
          "name": "",
          "type": "address"
        }
      ],
      "gas": 1977
    },
    {
      "stateMutability": "view",
      "type": "function",
      "name": "pool_count",
      "inputs": [],
      "outputs": [
        {
          "name": "",
          "type": "uint256"
        }
      ],
      "gas": 1898
    },
    {
      "stateMutability": "view",
      "type": "function",
      "name": "coin_count",
      "inputs": [],
      "outputs": [
        {
          "name": "",
          "type": "uint256"
        }
      ],
      "gas": 1928
    },
    {
      "stateMutability": "view",
      "type": "function",
      "name": "get_coin",
      "inputs": [
        {
          "name": "arg0",
          "type": "uint256"
        }
      ],
      "outputs": [
        {
          "name": "",
          "type": "address"
        }
      ],
      "gas": 2067
    },
    {
      "stateMutability": "view",
      "type": "function",
      "name": "get_pool_from_lp_token",
      "inputs": [
        {
          "name": "arg0",
          "type": "address"
        }
      ],
      "outputs": [
        {
          "name": "",
          "type": "address"
        }
      ],
      "gas": 2203
    },
    {
      "stateMutability": "view",
      "type": "function",
      "name": "get_lp_token",
      "inputs": [
        {
          "name": "arg0",
          "type": "address"
        }
      ],
      "outputs": [
        {
          "name": "",
          "type": "address"
        }
      ],
      "gas": 2233
    },
    {
      "stateMutability": "view",
      "type": "function",
      "name": "last_updated",
      "inputs": [],
      "outputs": [
        {
          "name": "",
          "type": "uint256"
        }
      ],
      "gas": 2048
    }
  ],
  "transactionHash": "0xff92d557d72833b090f4b7253aa99545fb6959e6bf129cb9d1db6770e592d347",
  "args": [
    "0xEd0c9B1CDaBDB585Dca32191a09a456D935E6Cfe",
    "0x7530E03056D3a8eD0323e61091ea2f17a1aC5C25"
  ],
  "numDeployments": 1,
  "bytecode": "0x6f7fffffffffffffffffffffffffffffff6040526040613a3b610140396020613a3b60c03960c05160a01c1561003457600080fd5b60206020613a3b0160c03960c05160a01c1561004f57600080fd5b6101405160005561016051600155613a2356600436101561000d576124cc565b600035601c526f7fffffffffffffffffffffffffffffff604052600051341561003557600080fd5b63a87df06c81141561004c5760006101405261006d565b636982eb0b81141561006857602060446101403760005061006d565b6100cf565b60043560a01c1561007d57600080fd5b60243560a01c1561008d57600080fd5b6024356004351861016052610140516201000081106100ab57600080fd5b600b6101605160e05260c052604060c02060c052602060c020015460005260206000f35b63940494f181141561013e5760043560a01c156100eb57600080fd5b6007600460043560e05260c052604060c02060c052602060c0200154610140526101405160801c6101805261014051700100000000000000000000000000000000808206905090506101a0526040610180f35b639ac90d3d81141561020e5760043560a01c1561015a57600080fd5b61010036610140376007600460043560e05260c052604060c02060c052602060c020015460801c6102405261026060006008818352015b610240516102605114156101a457610204565b61026051600881106101b557600080fd5b6005600460043560e05260c052604060c02060c052602060c0200160c052602060c020015461014061026051600881106101ee57600080fd5b60200201525b8151600101808352811415610191575b5050610100610140f35b63a77576ef8114156102f45760043560a01c1561022a57600080fd5b61010036610140376007600460043560e05260c052604060c02060c052602060c0200154700100000000000000000000000000000000808206905090506102405261026060006008818352015b6102405161026051141561028a576102ea565b610260516008811061029b57600080fd5b6006600460043560e05260c052604060c02060c052602060c0200160c052602060c020015461014061026051600881106102d457600080fd5b60200201525b8151600101808352811415610277575b5050610100610140f35b6352b5155581141561039c5760043560a01c1561031057600080fd5b6007600460043560e05260c052604060c02060c052602060c020015460801c61014052610100610140516001600460043560e05260c052604060c02060c052602060c02001546101605261014051610180526101805161016051600658016124d2565b6101e05261020052610220526102405261026052610280526102a0526102c052610140526101e0f35b634cb088f181141561045a5760043560a01c156103b857600080fd5b6007600460043560e05260c052604060c02060c052602060c02001547001000000000000000000000000000000008082069050905061014052610100610140516002600460043560e05260c052604060c02060c052602060c02001546101605261014051610180526101805161016051600658016124d2565b6101e05261020052610220526102405261026052610280526102a0526102c052610140526101e0f35b6356059ffb8114156106af5760043560a01c1561047657600080fd5b61028036610140376001546103c0526103e06000600a818352015b6103e051600a81106104a257600080fd5b600d60043560e05260c052604060c02060c052602060c0200154610400526104005115156104cf57610554565b610400516101406103e051600a81106104e757600080fd5b602002015260206104a06024633f9095b761042052610400516104405261043c6103c0515afa61051657600080fd5b601f3d1161052357600080fd5b6000506104a0516102806103e051600a811061053e57600080fd5b60200201525b8151600101808352811415610491575b50506103e080808080806101405181525050602081019050808061016051815250506020810190508080610180518152505060208101905080806101a0518152505060208101905080806101c0518152505060208101905080806101e051815250506020810190508080610200518152505060208101905080806102205181525050602081019050808061024051815250506020810190508080610260518152505050506101408101905080808080610280518152505060208101905080806102a0518152505060208101905080806102c0518152505060208101905080806102e05181525050602081019050808061030051815250506020810190508080610320518152505060208101905080806103405181525050602081019050808061036051815250506020810190508080610380518152505060208101905080806103a0518152505050506102809050905060c05260c0516103e0f35b6392e3cc2d8114156107075760043560a01c156106cb57600080fd5b6101006004356101405261014051600658016125f6565b6101a0526101c0526101e05261020052610220526102405261026052610280526101a0f35b63c5b7074a81141561076f5760043560a01c1561072357600080fd5b60206101a0600463bb7b8b806101405261015c600960043560e05260c052604060c020545afa61075257600080fd5b601f3d1161075f57600080fd5b6000506101a05160005260206000f35b6355b30b198114156107c95760043560a01c1561078b57600080fd5b60206101a0600463f446c1d06101405261015c6004355afa6107ac57600080fd5b601f3d116107b957600080fd5b6000506101a05160005260206000f35b631f80a957811415610b055760043560a01c156107e557600080fd5b610140366101403760206102e0600463f446c1d06102805261029c6004355afa61080e57600080fd5b601f3d1161081b57600080fd5b6000506102e0516101405260206102e0600463b54b88c36102805261029c6004355afa61084757600080fd5b601f3d1161085457600080fd5b6000506102e0516101605260206102e0600463ddca3f436102805261029c6004355afa61088057600080fd5b601f3d1161088d57600080fd5b6000506102e0516101805260206102e0600463574025b16102805261029c6004355afa6108b957600080fd5b601f3d116108c657600080fd5b6000506102e0516101c05260206102e0600463a0be06f96102805261029c6004355afa6108f257600080fd5b601f3d116108ff57600080fd5b6000506102e0516101a05260206102e0600463744d375e6102805261029c6004355afa61092b57600080fd5b601f3d1161093857600080fd5b6000506102e0516101e05260206102e06004631ec0cdc16102805261029c6004355afa61096457600080fd5b601f3d1161097157600080fd5b6000506102e051610200526008600460043560e05260c052604060c02060c052602060c020015415610a495760206102e06004635a86bb2e6102805261029c6004355afa6109be57600080fd5b601f3d116109cb57600080fd5b6000506102e0516102205260206102e06004634354d01e6102805261029c6004355afa6109f757600080fd5b601f3d11610a0457600080fd5b6000506102e0516102405260206102e0600463be61dbe66102805261029c6004355afa610a3057600080fd5b601f3d11610a3d57600080fd5b6000506102e051610260525b610140610280808080845181525050602081019050808084602001518152505060208101905080808460400151815250506020810190508080846060015181525050602081019050808084608001518152505060208101905080808460a001518152505060208101905080808460c001518152505060208101905080808460e00151815250506020810190508080846101000151815250506020810190508080846101200151815250506101409050905060c05260c051610280f35b637cdb72b0811415610b9a5760043560a01c15610b2157600080fd5b60206101a0600463ddca3f436101405261015c6004355afa610b4257600080fd5b601f3d11610b4f57600080fd5b6000506101a051610260526020610220600463a0be06f96101c0526101dc6004355afa610b7b57600080fd5b601f3d11610b8857600080fd5b60005061022051610280526040610260f35b63c11e45b8811415610dfb5760043560a01c15610bb657600080fd5b6101405161016051610180516101a0516101c0516101e05161020051610220516004356102405261024051600658016125f6565b6102a0526102c0526102e052610300526103205261034052610360526103805261022052610200526101e0526101c0526101a0526101805261016052610140526102a080516101405280602001516101605280604001516101805280606001516101a05280608001516101c0528060a001516101e0528060c00151610200528060e0015161022052506007600460043560e05260c052604060c02060c052602060c020015460801c6102405261026060006008818352015b6102605160088110610cb357600080fd5b6005600460043560e05260c052604060c02060c052602060c0200160c052602060c02001546102805261024051610260511415610cef57610df1565b73eeeeeeeeeeeeeeeeeeeeeeeeeeeeeeeeeeeeeeee610280511415610d5d57600435316101406102605160088110610d2657600080fd5b602002015180821015610d3857600080fd5b808203905090506101406102605160088110610d5357600080fd5b6020020152610de1565b602061032060246370a082316102a0526004356102c0526102bc610280515afa610d8657600080fd5b601f3d11610d9357600080fd5b600050610320516101406102605160088110610dae57600080fd5b602002015180821015610dc057600080fd5b808203905090506101406102605160088110610ddb57600080fd5b60200201525b8151600101808352811415610ca2575b5050610100610140f35b63eb85226d811415610f115760043560a01c15610e1757600080fd5b60243560a01c15610e2757600080fd5b60443560a01c15610e3757600080fd5b6101405161016051610180516004356101a0526024356101c0526044356101e0526101e0516101c0516101a05160065801612718565b6102405261026052610280526101805261016052610140526102408051610140528060200151610160528060400151610180525061014051604051811115610eb457600080fd5b6101a05261016051604051811115610ecb57600080fd5b6101c0526101e08080806101a0518152505060208101905080806101c051815250506020810190508080600061018051118152505060609050905060c05260c0516101e0f35b63e4d332a9811415610f565760043560a01c15610f2d57600080fd5b60006004600460043560e05260c052604060c02060c052602060c0200154141560005260206000f35b635c9117418114156110245760043560a01c15610f7257600080fd5b600a600460043560e05260c052604060c02060c052602060c020018060c052602060c020610180602082540161012060006003818352015b82610120516020021115610fbd57610fdf565b61012051850154610120516020028501525b8151600101808352811415610faa575b50505050505061018051806101a001818260206001820306601f82010390500336823750506020610160526040610180510160206001820306601f8201039050610160f35b6398aede168114156110655760043560a01c1561104057600080fd5b6002600660043560e05260c052604060c02060c052602060c020015460005260206000f35b635d2119828114156110ce5760043560a01c1561108157600080fd5b6024356f7fffffffffffffffffffffffffffffff81106110a057600080fd5b6003600660043560e05260c052604060c02060c052602060c0200160c052602060c020015460005260206000f35b6366d3966c81141561110f5760043560a01c156110ea57600080fd5b600b600460043560e05260c052604060c02060c052602060c020015460005260206000f35b632ec4096081141561162c5760043560a01c1561112b57600080fd5b60443560a01c1561113b57600080fd5b60843560011c1561114b57600080fd5b606060a43560040161014037604060a43560040135111561116b57600080fd5b6101405161016051610180516101a05160c0336101c0526004356101e05260243560243560801b8181830110156111a157600080fd5b80820190509050610200526044356102205260843561024052806102605261014080805160200180846101c0018284600060045af16111df57600080fd5b5050505061026051806101c00180518060206001820306601f82010390508201610320525050505b6102806103205110156112195761122e565b61032051516020610320510361032052611207565b610260516102405161022051610200516101e0516101c05160065801612828565b6101a0526101805261016052610140526000506101405161016051610180516101a0516101c0516101e05161020051610220516102405161026051610280516102a0516004356102c0526024356102e0526102e0516102c051600658016130bf565b6103405261036052610380526103a0526103c0526103e05261040052610420526102a05261028052610260526102405261022052610200526101e0526101c0526101a05261018052610160526101405261034080516101c05280602001516101e0528060400151610200528060600151610220528060800151610240528060a00151610260528060c00151610280528060e001516102a052506064356102c0526102c0511515611444576101405161016051610180516101a0516101c0516101e05161020051610220516102405161026051610280516102a0516102c0516101c0516102e0526101e051610300526102005161032052610220516103405261024051610360526102605161038052610280516103a0526102a0516103c0526024356103e0526103e0516103c0516103a05161038051610360516103405161032051610300516102e0516006580161348f565b610440526102c0526102a05261028052610260526102405261022052610200526101e0526101c0526101a052610180526101605261014052610440516102c0525b6102c0516001600460043560e05260c052604060c02060c052602060c020015560006102e05261030060006008818352015b60243561030051141561148857611608565b7ffffffffffffffffffffffffffffffffffffffffffffffffffffffffffffffff8610300516040518111156114bc57600080fd5b808202808060008112156114cc57195b607f1c156114d957600080fd5b905090509050610320526101c061030051600881106114f757600080fd5b6020020151610300516008811061150d57600080fd5b6006600460043560e05260c052604060c02060c052602060c0200160c052602060c02001556102e08051610320517fffffffffffffffffffffffffffffffff80000000000000000000000000000000811361156757600080fd5b60000360008112156115ab5761032051600081121561158e576102c051816000031c611595565b6102c051811b5b905061010080820690509050816000031c6115dc565b6103205160008112156115c6576102c051816000031c6115cd565b6102c051811b5b905061010080820690509050811b5b90508181830110156115ed57600080fd5b808201905090508152505b8151600101808352811415611476575b50506102e0516002600460043560e05260c052604060c02060c052602060c0200155005b63474932b0811415611fcb5760043560a01c1561164857600080fd5b60206101a0600463f851a4406101405261015c6000545afa61166957600080fd5b601f3d1161167657600080fd5b6000506101a051331461168857600080fd5b60006005600460043560e05260c052604060c02060c052602060c0200160c052602060c02054186116b857600080fd5b60006009600a60043560e05260c052604060c0205460e05260c052604060c020556000600a60043560e05260c052604060c02055600460043560e05260c052604060c02060c052602060c020546101405260035460018082101561171b57600080fd5b808203905090506101605261016051610140511015611799576101605162010000811061174757600080fd5b600260c052602060c020015461018052610180516101405162010000811061176e57600080fd5b600260c052602060c02001556101405160046101805160e05260c052604060c02060c052602060c020555b6000610160516201000081106117ae57600080fd5b600260c052602060c02001556101605160035560006002600460043560e05260c052604060c02060c052602060c020015560006001600460043560e05260c052604060c02060c052602060c020015560006007600460043560e05260c052604060c02060c052602060c020015560006101805261018080600a600460043560e05260c052604060c02060c052602060c0200160c052602060c020602082510161012060006001818352015b8261012051602002111561186c5761188e565b61012051602002850151610120518501555b8151600101808352811415611859575b5050505050506000600b600460043560e05260c052604060c02060c052602060c0200155610200366101803761038060006008818352015b61038051600881106118d757600080fd5b6005600460043560e05260c052604060c02060c052602060c0200160c052602060c0200154610180610380516008811061191057600080fd5b6020020152610380516008811061192657600080fd5b6006600460043560e05260c052604060c02060c052602060c0200160c052602060c0200154610280610380516008811061195f57600080fd5b6020020152610280610380516008811061197857600080fd5b602002015115156119a257610180610380516008811061199757600080fd5b6020020151156119a5565b60005b156119af57611c37565b600061018061038051600881106119c557600080fd5b60200201511815611ace57600061038051600881106119e357600080fd5b6005600460043560e05260c052604060c02060c052602060c0200160c052602060c02001556101405161016051610180516101a0516101c0516101e05161020051610220516102405161026051610280516102a0516102c0516102e05161030051610320516103405161036051610380516101806103805160088110611a6857600080fd5b60200201516103a0526103a05160065801612d52565b61038052610360526103405261032052610300526102e0526102c0526102a05261028052610260526102405261022052610200526101e0526101c0526101a0526101805261016052610140526000505b60006102806103805160088110611ae457600080fd5b60200201511815611c275760006103805160088110611b0257600080fd5b6006600460043560e05260c052604060c02060c052602060c0200160c052602060c02001556000600160066102806103805160088110611b4157600080fd5b602002015160e05260c052604060c02060c052602060c02001541815611c27576101405161016051610180516101a0516101c0516101e05161020051610220516102405161026051610280516102a0516102c0516102e05161030051610320516103405161036051610380516102806103805160088110611bc157600080fd5b60200201516103a0526103a05160065801612d52565b61038052610360526103405261032052610300526102e0526102c0526102a05261028052610260526102405261022052610200526101e0526101c0526101a0526101805261016052610140526000505b81516001018083528114156118c6575b505060006004600460043560e05260c052604060c02060c052602060c02001541415610380526103a060006008818352015b6101806103a05160088110611c7d57600080fd5b60200201516103c0526102806103a05160088110611c9a57600080fd5b60200201516103e0526103c0511515611cb257611f7c565b6103a0516001818183011015611cc757600080fd5b8082019050905061040052610420610400516008818352015b6102806104205160088110611cf457600080fd5b602002015161044052610440511515611d0c57611f69565b6101806104205160088110611d2057600080fd5b6020020151610460526000610460511815611dba57610140610480525b61048051516020610480510161048052610480610480511015611d5f57611d3d565b6004356104a0526103c0516104c052610460516104e0526104e0516104c0516104a05160065801613610565b610460610480525b6104805152602061048051036104805261014061048051101515611db657611d93565b6000505b6103e0516103c0511815611dcf576001611dda565b610440516104605114155b15611e6457610140610480525b61048051516020610480510161048052610480610480511015611e0957611de7565b6004356104a0526103e0516104c052610440516104e0526104e0516104c0516104a05160065801613610565b610460610480525b6104805152602061048051036104805261014061048051101515611e6057611e3d565b6000505b6103805115611ebe5760006104a0526104a061012060006008818352015b6101205160200261018001516103e0511415611ea15760018352611eb1565b8151600101808352811415611e82575b5050506104a05115611ec1565b60005b15611f5957610440516103e051186104c0526101406104e0525b6104e0515160206104e051016104e0526104e06104e0511015611efd57611edb565b6103e0516105005261044051610520526104c0516105405261054051610520516105005160065801612b7a565b6104c06104e0525b6104e0515260206104e051036104e0526101406104e051101515611f5557611f32565b6000505b8151600101808352811415611ce0575b50505b8151600101808352811415611c69575b505060006004600460043560e05260c052604060c02060c052602060c020015542600e556004357f4106dfdaa577573db51c0ca93f766dbedfa0758faa2e7f5bcdb7c142be803c3f60006000a2005b63ef6b97888114156121e85760043560a01c15611fe757600080fd5b6000610120525b610120516024013560a01c1561200357600080fd5b602061012051016101205261014061012051101561202057611fee565b60206101a0600463f851a4406101405261015c6000545afa61204157600080fd5b601f3d1161204e57600080fd5b6000506101a051331461206057600080fd5b600a60043560e05260c052604060c0205461014052600154610160526101806000600a818352015b602461018051600a811061209b57600080fd5b60200201356101a05260006101a05118156121665761014051602061022060046382c630666101c0526101dc6101a0515afa6120d657600080fd5b601f3d116120e357600080fd5b60005061022051146120f457600080fd5b60206102406024633f9095b76101c0526101a0516101e0526101dc610160515afa61211e57600080fd5b601f3d1161212b57600080fd5b600050610240506101a05161018051600a811061214757600080fd5b600d60043560e05260c052604060c02060c052602060c02001556121d0565b600061018051600a811061217957600080fd5b600d60043560e05260c052604060c02060c052602060c020015418156121cb57600061018051600a81106121ac57600080fd5b600d60043560e05260c052604060c02060c052602060c02001556121d0565b6121e0565b8151600101808352811415612088575b505042600e55005b6309e767748114156122695760043560a01c1561220457600080fd5b60206101a0600463f851a4406101405261015c6000545afa61222557600080fd5b601f3d1161223257600080fd5b6000506101a051331461224457600080fd5b602435600b600460043560e05260c052604060c02060c052602060c020015542600e55005b637542f078811415612380576000610120525b610120516004013560a01c1561229157600080fd5b60206101205101610120526104006101205110156122ae5761227c565b60206101a0600463f851a4406101405261015c6000545afa6122cf57600080fd5b601f3d116122dc57600080fd5b6000506101a05133146122ee57600080fd5b61014060006020818352015b6004610140516020811061230d57600080fd5b6020020135151561231d57612378565b610404610140516020811061233157600080fd5b6020020135600b60046004610140516020811061234d57600080fd5b602002013560e05260c052604060c02060c052602060c02001555b81516001018083528114156122fa575b505042600e55005b63ce50c2e78114156123985760005460005260206000f35b63d8b9a0188114156123b05760015460005260206000f35b633a1d5d8e8114156123e3576004356201000081106123ce57600080fd5b600260c052602060c020015460005260206000f35b63956aae3a8114156123fb5760035460005260206000f35b635075770f8114156124135760055460005260206000f35b6345f0db248114156124465760043562010000811061243157600080fd5b600760c052602060c020015460005260206000f35b63bdf475c381141561247c5760043560a01c1561246257600080fd5b600960043560e05260c052604060c0205460005260206000f35b63379510498114156124b25760043560a01c1561249857600080fd5b600a60043560e05260c052604060c0205460005260206000f35b63689009618114156124ca57600e5460005260206000f35b505b60006000fd5b610180526101405261016052610100366101a037610160516040518111156124f957600080fd5b6102a0526102c060006008818352015b6102a0516102c051141561251c576125b8565b7ffffffffffffffffffffffffffffffffffffffffffffffffffffffffffffffff86102c0518082028080600081121561255157195b607f1c1561255e57600080fd5b905090509050600081121561257b5761014051816000031c612582565b61014051811b5b9050610100808206905090506101a06102c051600881106125a257600080fd5b60200201525b8151600101808352811415612509575b50506101006102c0525b60006102c0511115156125d4576125f0565b60206102c051036101a0015160206102c051036102c0526125c2565b61018051565b6101605261014052610100366101803761028060006008818352015b610280516008811061262357600080fd5b600560046101405160e05260c052604060c02060c052602060c0200160c052602060c02001541515612664576000610280511861265f57600080fd5b6126da565b60206103206024634903b0d16102a05261028051600081121561268657600080fd5b6102c0526102bc610140515afa61269c57600080fd5b601f3d116126a957600080fd5b6000506103205161018061028051600881106126c457600080fd5b60200201525b8151600101808352811415612612575b5050610100610280525b6000610280511115156126f657612712565b60206102805103610180015160206102805103610280526126e4565b61016051565b6101a0526101405261016052610180526080366101c03761024060006008818352015b610240516008811061274c57600080fd5b600560046101405160e05260c052604060c02060c052602060c0200160c052602060c02001546102605261026051151561278b576000610220526127eb565b610160516102605114156127a657610240516101c0526127c6565b610180516102605114156127c157610240516101e0526127c6565b6127db565b61022051156127d4576127eb565b6001610220525b815160010180835281141561273b575b50506060610240525b60006102405111151561280657612822565b602061024051036101c0015160206102405103610240526127f4565b6101a051565b610200526101405261016052610180526101a0526101c0526101e0526102205260006102a0525b6102205160206001820306601f82010390506102a0511015156128715761288a565b6102a05161024001526102a0516020016102a05261284f565b6000506020610320600463f851a4406102c0526102dc6000545afa6128ae57600080fd5b601f3d116128bb57600080fd5b6000506103205161014051146128d057600080fd5b60006101a051186128e057600080fd5b600560046101605160e05260c052604060c02060c052602060c0200160c052602060c020541561290f57600080fd5b60096101a05160e05260c052604060c020541561292b57600080fd5b6003546102c052610160516102c05162010000811061294957600080fd5b600260c052602060c02001556102c051600181818301101561296a57600080fd5b808201905090506003556102c05160046101605160e05260c052604060c02060c052602060c020556101c051600860046101605160e05260c052604060c02060c052602060c020015561018051600760046101605160e05260c052604060c02060c052602060c020015561022080600a60046101605160e05260c052604060c02060c052602060c0200160c052602060c020602082510161012060006003818352015b82610120516020021115612a2057612a42565b61012051602002850151610120518501555b8151600101808352811415612a0d575b5050505050506101605160096101a05160e05260c052604060c020556101a051600a6101605160e05260c052604060c0205542600e55610160517f73cca62ab1b520c9715bf4e6c71e3e518c754e7148f65102f43289a7df0efea660006000a261020051565b6101605261014052600160066101405160e05260c052604060c02060c052602060c02001541515612b3b57600554610180526101805160066101405160e05260c052604060c02060c052602060c020556101405161018051620100008110612b0f57600080fd5b600760c052602060c0200155600580546001818183011015612b3057600080fd5b808201905090508155505b600160066101405160e05260c052604060c02060c052602060c0200180546001818183011015612b6a57600080fd5b8082019050905081555061016051565b6101a052610140526101605261018052600260066101405160e05260c052604060c02060c052602060c02001546101c052610160516101c0516f7fffffffffffffffffffffffffffffff8110612bcf57600080fd5b600360066101405160e05260c052604060c02060c052602060c0200160c052602060c0200155600260066101405160e05260c052604060c02060c052602060c0200180546001818183011015612c2457600080fd5b80820190509050815550600260066101605160e05260c052604060c02060c052602060c02001546101e052610140516101e0516f7fffffffffffffffffffffffffffffff8110612c7357600080fd5b600360066101605160e05260c052604060c02060c052602060c0200160c052602060c0200155600260066101605160e05260c052604060c02060c052602060c0200180546001818183011015612cc857600080fd5b8082019050905081555061016051610140511015612d18576101e05160801b6101c051818183011015612cfa57600080fd5b8082019050905060086101805160e05260c052604060c02055612d4c565b6101c05160801b6101e051818183011015612d3257600080fd5b8082019050905060086101805160e05260c052604060c020555b6101a051565b6101605261014052600160066101405160e05260c052604060c02060c052602060c020018054600180821015612d8757600080fd5b80820390509050815550600160066101405160e05260c052604060c02060c052602060c02001541515612ea75760058054600180821015612dc757600080fd5b808203905090508155506005546101805260066101405160e05260c052604060c02060c052602060c020546101a052610180516101a0511015612e695761018051620100008110612e1757600080fd5b600760c052602060c02001546101c0526101c0516101a051620100008110612e3e57600080fd5b600760c052602060c02001556101a05160066101c05160e05260c052604060c02060c052602060c020555b600060066101405160e05260c052604060c02060c052602060c02055600061018051620100008110612e9a57600080fd5b600760c052602060c02001555b61016051565b6101a052610140526101605261018052600260066101405160e05260c052604060c02060c052602060c020018054600180821015612eea57600080fd5b80820390509050815550600260066101405160e05260c052604060c02060c052602060c02001546101c0526101c051610180511015613071576101c0516f7fffffffffffffffffffffffffffffff8110612f4357600080fd5b600360066101405160e05260c052604060c02060c052602060c0200160c052602060c02001546101e0526101e05161014051186102005260086102005160e05260c052604060c02054610220526101e051610140511015612fd9576102205160801c60801b61018051818183011015612fbb57600080fd5b8082019050905060086102005160e05260c052604060c02055613026565b6101805160801b610220517001000000000000000000000000000000008082069050905081818301101561300c57600080fd5b8082019050905060086102005160e05260c052604060c020555b6101e051610180516f7fffffffffffffffffffffffffffffff811061304a57600080fd5b600360066101405160e05260c052604060c02060c052602060c0200160c052602060c02001555b60006101c0516f7fffffffffffffffffffffffffffffff811061309357600080fd5b600360066101405160e05260c052604060c02060c052602060c0200160c052602060c02001556101a051565b610180526101405261016052610120366101a0376102c060006008818352015b610160516102c05114156130f25761319d565b6020610360602463c66106576102e0526102c051610300526102fc610140515afa61311c57600080fd5b601f3d1161312957600080fd5b600050610360516102a0526102a0516102c0516008811061314957600080fd5b600560046101405160e05260c052604060c02060c052602060c0200160c052602060c02001556102a0516101a06102c0516008811061318757600080fd5b60200201525b81516001018083528114156130df575b50506102c060006008818352015b610160516102c05114156131be57613451565b6101405161016051610180516101a0516101c0516101e05161020051610220516102405161026051610280516102a0516102c0516101a06102c0516008811061320657600080fd5b60200201516102e0526102e05160065801612aa8565b6102c0526102a05261028052610260526102405261022052610200526101e0526101c0526101a0526101805261016052610140526000506102c051600181818301101561326857600080fd5b808201905090506102e0526103006102e0516008818352015b610160516103005114156132945761343e565b6101a061030051600881106132a857600080fd5b60200201516101a06102c051600881106132c157600080fd5b60200201511861032052600c6103205160e05260c052604060c020546103405261014051610340516201000081106132f857600080fd5b600b6103205160e05260c052604060c02060c052602060c020015561034051600181818301101561332857600080fd5b80820190509050600c6103205160e05260c052604060c0205561034051151561342e576101405161016051610180516101a0516101c0516101e05161020051610220516102405161026051610280516102a0516102c0516102e0516103005161032051610340516101a061030051600881106133a357600080fd5b6020020151610360526101a06102c051600881106133c057600080fd5b602002015161038052610320516103a0526103a051610380516103605160065801612b7a565b6103405261032052610300526102e0526102c0526102a05261028052610260526102405261022052610200526101e0526101c0526101a0526101805261016052610140526000505b8151600101808352811415613281575b50505b81516001018083528114156131ab575b50506101006102c0525b60006102c05111151561346d57613489565b60206102c051036101a0015160206102c051036102c05261345b565b61018051565b610260526101405261016052610180526101a0526101c0526101e05261020052610220526102405260403661028037610240516040518111156134d157600080fd5b6102c0526102e060006008818352015b6102c0516102e05114156134f4576135fe565b6101406102e0516008811061350857600080fd5b60200201516103005273eeeeeeeeeeeeeeeeeeeeeeeeeeeeeeeeeeeeeeee61030051141561353b5760126102a052613586565b6020610380600463313ce5676103205261033c610300515afa61355d57600080fd5b601f3d1161356a57600080fd5b600050610380516102a0526101006102a0511061358657600080fd5b61028080516102e0516008808202808060008112156135a157195b607f1c156135ae57600080fd5b90509050905060008112156135cb576102a051816000031c6135d2565b6102a051811b5b90508181830110156135e357600080fd5b808201905090508152505b81516001018083528114156134e1575b50506102805160005260005161026051565b6101a0526101405261016052610180526101805161016051186101c052600c6101c05160e05260c052604060c0205460018082101561364e57600080fd5b808203905090506101e0526101e051151561389a5760086101c05160e05260c052604060c020546102005261018051610160511015613788576101405161016051610180516101a0516101c0516101e051610200516101605161022052610180516102405261020051700100000000000000000000000000000000808206905090506102605261026051610240516102205160065801612ead565b610200526101e0526101c0526101a0526101805261016052610140526000506102005160801c610220526101405161016051610180516101a0516101c0516101e051610200516102205161018051610240526101605161026052610220516102805261028051610260516102405160065801612ead565b61022052610200526101e0526101c0526101a052610180526101605261014052600050613885565b6102005160801c610220526101405161016051610180516101a0516101c0516101e051610200516102205161016051610240526101805161026052610220516102805261028051610260516102405160065801612ead565b61022052610200526101e0526101c0526101a0526101805261016052610140526000506101405161016051610180516101a0516101c0516101e051610200516101805161022052610160516102405261020051700100000000000000000000000000000000808206905090506102605261026051610240516102205160065801612ead565b610200526101e0526101c0526101a0526101805261016052610140526000505b600060086101c05160e05260c052604060c020555b610200600062010000818352015b6101e0516102005111156138bb576139b9565b61014051610200516201000081106138d257600080fd5b600b6101c05160e05260c052604060c02060c052602060c020015414156139a9576101e05161020051101561395e576101e05162010000811061391457600080fd5b600b6101c05160e05260c052604060c02060c052602060c02001546102005162010000811061394257600080fd5b600b6101c05160e05260c052604060c02060c052602060c02001555b60006101e05162010000811061397357600080fd5b600b6101c05160e05260c052604060c02060c052602060c02001556101e051600c6101c05160e05260c052604060c020556139b9565b81516001018083528114156138a8575b50506101a051565b610062613a2303610062600039610062613a23036000f3"
}